:020000040800F2
:10000000000002207D9D0208DD980208E1980208A8
:10001000E5980208E9980208ED980208000000003F
:10002000000000000000000000000000F19802083D
:10003000F598020800000000F9980208FD980208EF
:10004000CD9D0208CD9D0208CD9D0208CD9D0208E0
:10005000CD9D0208CD9D0208CD9D0208CD9D0208D0
:10006000CD9D0208CD9D0208CD9D0208CD9D0208C0
:10007000CD9D0208CD9D020815990208219902081C
:10008000CD9D0208CD9D0208CD9D0208CD9D0208A0
:10009000CD9D0208CD9D0208CD9D0208CD9D020890
:1000A000CD9D0208CD9D0208CD9D02082D99020824
:1000B000CD9D0208CD9D0208CD9D0208CD9D020870
:1000C000CD9D0208CD9D0208CD9D0208CD9D020860
:1000D000CD9D02086D990208CD9D02089D9A0208E7
:1000E000CD9D0208CD9D0208CD9D0208CD9D020840
:1000F000CD9D0208CD9D0208CD9D0208CD9D020830
:10010000CD9D0208CD9D0208CD9D0208CD9D02081F
:10011000CD9D0208CD9D0208A99A0208BD9A020849
:10012000E19A0208CD9D0208CD9D0208ED9A0208D1
:10013000CD9D02080000000000000000CD9D0208D7
:10014000CD9D0208CD9D0208CD9D0208CD9D0208DF
:10015000CD9D0208F99A0208059B0208119B02082E
:10016000CD9D0208CD9D0208CD9D0208CD9D0208BF
:10017000CD9D0208CD9D0208CD9D02080000000023
:1001800000000000CD9D02080000000000000000FB
:10019000CD9D02080000000000000000CD9D020877
:1001A000000000000000000000000000CD9D0208DB
:1001B000CD9D0208CD9D0208CD9D0208CD9D02086F
:0401C000CD9D0208C7
:020000040802F0
:1000000010B5054C237833B9044B13B10448AFF352
:1000100000800123237010BD0802002000000000B2
:1000200024CC020808B5034B1BB103490348AFF3C6
:10003000008008BD000000000C02002024CC020853
:10004000034613F8012B002AFBD1181A0138704718
:1000500001F0FF01102A2BDB10F0070F08D010F879
:10006000013B013A8B422DD010F0070F42B3F6D17D
:10007000F0B441EA012141EA014122F007047FF096
:1000800000070023F0E80256083C85EA010586EAED
:10009000010685FA47F5A3FA87F586FA47F6A5FA29
:1000A00087F68EB9EED1F0BC01F0FF0102F0070235
:1000B00032B110F8013B013A83EA010313B1F8D1E0
:1000C0000020704701387047002D06BF35460338C1
:1000D000073815F0010F07D1013015F4807F02BFFA
:1000E000013015F4C03F0130F0BC0138704700BF4B
:1000F00081F0004102E000BF83F0004330B54FEAD9
:1001000041044FEA430594EA050F08BF90EA020F45
:100110001FBF54EA000C55EA020C7FEA645C7FEAD8
:10012000655C00F0E2804FEA5454D4EB5555B8BFFB
:100130006D420CDD2C4480EA020281EA030382EA6C
:10014000000083EA010180EA020281EA0303362DFE
:1001500088BF30BD11F0004F4FEA01314FF4801CD1
:100160004CEA113102D0404261EB410113F0004FE3
:100170004FEA03334CEA133302D0524263EB43039A
:1001800094EA050F00F0A780A4F10104D5F1200E38
:100190000DDB02FA0EFC22FA05F2801841F1000193
:1001A00003FA0EF2801843FA05F359410EE0A5F167
:1001B00020050EF1200E012A03FA0EFC28BF4CF098
:1001C000020C43FA05F3C01851EBE37101F000454E
:1001D00007D54FF0000EDCF1000C7EEB00006EEB5B
:1001E0000101B1F5801F1BD3B1F5001F0CD34908E5
:1001F0005FEA30004FEA3C0C04F101044FEA44523C
:1002000012F5800F80F09A80BCF1004F08BF5FEAC2
:10021000500C50F1000041EB045141EA050130BDA2
:100220005FEA4C0C404141EB0101013C28BFB1F5B4
:10023000801FE9D291F0000F04BF01460020B1FAFF
:1002400081F308BF2033A3F10B03B3F120020CDAD2
:100250000C3208DD02F1140CC2F10C0201FA0CF0B0
:1002600021FA02F10CE002F11402D8BFC2F1200C15
:1002700001FA02F120FA0CFCDCBF41EA0C019040CB
:10028000E41AA2BF01EB0451294330BD6FEA040414
:100290001F3C1CDA0C340EDC04F11404C4F12002FF
:1002A00020FA04F001FA02F340EA030021FA04F311
:1002B00045EA030130BDC4F10C04C4F1200220FA68
:1002C00002F001FA04F340EA0300294630BD21FAA6
:1002D00004F0294630BD94F0000F83F4801306BF6C
:1002E00081F480110134013D4EE77FEA645C18BF60
:1002F0007FEA655C29D094EA050F08BF90EA020FF7
:1003000005D054EA000C04BF1946104630BD91EAEE
:10031000030F1EBF0021002030BD5FEA545C05D1F1
:100320004000494128BF41F0004130BD14F5800430
:100330003CBF01F5801130BD01F0004545F0FE41A4
:1003400041F470014FF0000030BD7FEA645C1ABFD9
:10035000194610467FEA655C1CBF0B46024650EA10
:10036000013406BF52EA033591EA030F41F400213C
:1003700030BD00BF90F0000F04BF0021704730B5C2
:100380004FF4806404F132044FF000054FF0000197
:1003900050E700BF90F0000F04BF0021704730B558
:1003A0004FF4806404F1320410F0004548BF40422D
:1003B0004FF000013EE700BF42004FEAE2014FEA82
:1003C00031014FEA02701FBF12F07F4393F07F4F5D
:1003D00081F06051704732F07F4208BF704793F060
:1003E0007F4F04BF41F40021704730B54FF4607473
:1003F00001F0004521F000411CE700BF50EA010276
:1004000008BF704730B54FF000050AE050EA01021E
:1004100008BF704730B511F0004502D5404261EB8E
:1004200041014FF4806404F132045FEA915C3FF4CF
:10043000D8AE4FF003025FEADC0C18BF03325FEA6C
:10044000DC0C18BF033202EBDC02C2F1200300FA1D
:1004500003FC20FA02F001FA03FE40EA0E0021FA42
:1004600002F11444BDE600BF70B54FF0FF0C4CF430
:10047000E06C1CEA11541DBF1CEA135594EA0C0FE2
:1004800095EA0C0F00F0DEF82C4481EA030621EA1D
:100490004C5123EA4C5350EA013518BF52EA033558
:1004A00041F4801143F4801338D0A0FB02CE4FF00A
:1004B0000005E1FB02E506F00042E0FB03E54FF03A
:1004C0000006E1FB03569CF0000F18BF4EF0010E32
:1004D000A4F1FF04B6F5007F64F5407404D25FEA2E
:1004E0004E0E6D4146EB060642EAC62141EA5551E1
:1004F0004FEAC52040EA5E504FEACE2EB4F1FD0C23
:1005000088BFBCF5E06F1ED8BEF1004F08BF5FEAA0
:10051000500E50F1000041EB045170BD06F0004652
:1005200046EA010140EA020081EA0301B4EB5C04FF
:10053000C2BFD4EB0C0541EA045170BD41F48011F7
:100540004FF0000E013C00F3AB8014F1360FDEBF1C
:10055000002001F0004170BDC4F10004203C35DAF8
:100560000C341BDC04F11404C4F1200500FA05F37B
:1005700020FA04F001FA05F240EA020001F000421C
:1005800021F0004110EBD37021FA04F642EB060192
:100590005EEA430E08BF20EAD37070BDC4F10C04BC
:1005A000C4F1200500FA04F320FA05F001FA04F280
:1005B00040EA020001F0004110EBD37041F100016C
:1005C0005EEA430E08BF20EAD37070BDC4F1200577
:1005D00000FA05F24EEA020E20FA04F301FA05F2DF
:1005E00043EA020321FA04F001F0004121FA04F287
:1005F00020EA020000EBD3705EEA430E08BF20EA57
:10060000D37070BD94F0000F0FD101F00046400090
:1006100041EB010111F4801F08BF013CF7D041EA12
:10062000060195F0000F18BF704703F00046520016
:1006300043EB030313F4801F08BF013DF7D043EAE7
:100640000603704794EA0C0F0CEA135518BF95EA9D
:100650000C0F0CD050EA410618BF52EA4306D1D124
:1006600081EA030101F000414FF0000070BD50EA43
:10067000410606BF1046194652EA430619D094EACD
:100680000C0F02D150EA013613D195EA0C0F05D1B7
:1006900052EA03361CBF104619460AD181EA03010B
:1006A00001F0004141F0FE4141F470014FF00000C3
:1006B00070BD41F0FE4141F4780170BD70B54FF05E
:1006C000FF0C4CF4E06C1CEA11541DBF1CEA1355DE
:1006D00094EA0C0F95EA0C0F00F0A7F8A4EB0504C0
:1006E00081EA030E52EA03354FEA013100F08880B7
:1006F0004FEA03334FF0805545EA131343EA126380
:100700004FEA022245EA111545EA10654FEA002634
:100710000EF000419D4208BF964244F1FD0404F5ED
:10072000407402D25B084FEA3202B61A65EB030549
:100730005B084FEA32024FF480104FF4002CB6EB06
:10074000020E75EB030E22BFB61A754640EA0C0086
:100750005B084FEA3202B6EB020E75EB030E22BFC6
:10076000B61A754640EA5C005B084FEA3202B6EB07
:10077000020E75EB030E22BFB61A754640EA9C00C6
:100780005B084FEA3202B6EB020E75EB030E22BF96
:10079000B61A754640EADC0055EA060E18D04FEA54
:1007A000051545EA16754FEA06164FEAC30343EAF4
:1007B00052734FEAC2025FEA1C1CC0D111F4801FC1
:1007C0000BD141EA00014FF000004FF0004CB6E7BA
:1007D00011F4801F04BF01430020B4F1FD0C88BF59
:1007E000BCF5E06F3FF6AFAEB5EB030C04BFB6EB64
:1007F000020C5FEA500C50F1000041EB045170BD57
:100800000EF0004E4EEA113114EB5C04C2BFD4EB83
:100810000C0541EA045170BD41F480114FF0000E07
:10082000013C90E645EA060E8DE60CEA135594EA83
:100830000C0F08BF95EA0C0F3FF43BAF94EA0C0F86
:100840000AD150EA01347FF434AF95EA0C0F7FF4FB
:1008500025AF104619462CE795EA0C0F06D152EA4F
:1008600003353FF4FDAE1046194622E750EA410633
:1008700018BF52EA43067FF4C5AE50EA41047FF444
:100880000DAF52EA43057FF4EBAE12E74FF0FF3CA9
:1008900006E000BF4FF0010C02E000BF4FF0010C7A
:1008A0004DF804CD4FEA410C7FEA6C5C4FEA430CF3
:1008B00018BF7FEA6C5C1BD001B050EA410C0CBF42
:1008C00052EA430C91EA030F02BF90EA020F0020A4
:1008D000704710F1000F91EA030F58BF994208BF0B
:1008E00090422CBFD8176FEAE37040F001007047C8
:1008F0004FEA410C7FEA6C5C02D150EA013C07D11F
:100900004FEA430C7FEA6C5CD6D152EA033CD3D069
:100910005DF8040B704700BF8446104662468C4663
:100920001946634600E000BF01B5FFF7B7FF002896
:1009300048BF10F1000F01BD4DF808EDFFF7F4FFBF
:100940000CBF012000205DF808FB00BF4DF808ED4A
:10095000FFF7EAFF34BF012000205DF808FB00BF6D
:100960004DF808EDFFF7E0FF94BF012000205DF88F
:1009700008FB00BF4DF808EDFFF7CEFF94BF012044
:1009800000205DF808FB00BF4DF808EDFFF7C4FF3D
:1009900034BF012000205DF808FB00BF4FEA410C86
:1009A0007FEA6C5C02D150EA013C0AD14FEA430C69
:1009B0007FEA6C5C02D152EA033C02D14FF00000A6
:1009C00070474FF0010070474FEA410212F50012E4
:1009D00015D211D56FF47873B3EB625212D94FEA86
:1009E000C12343F0004343EA505311F0004F23FA70
:1009F00002F018BF404270474FF00000704750EAC5
:100A0000013005D111F0004008BF6FF00040704781
:100A10004FF00000704700BF80F0004002E000BFD0
:100A200081F0004142001FBF5FEA410392EA030FD9
:100A30007FEA226C7FEA236C6AD04FEA1262D2EB23
:100A40001363C1BFD218414048404140B8BF5B4228
:100A5000192B88BF704710F0004F40F4000020F0C1
:100A60007F4018BF404211F0004F41F4000121F0D7
:100A70007F4118BF494292EA030F3FD0A2F1010221
:100A800041FA03FC10EB0C00C3F1200301FA03F15F
:100A900000F0004302D5494260EB4000B0F5000F82
:100AA00013D3B0F1807F06D340084FEA310102F141
:100AB0000102FE2A51D2B1F1004F40EBC25008BFF3
:100AC00020F0010040EA03007047490040EB0000BD
:100AD000013A28BFB0F5000FEDD2B0FA80FCACF1BE
:100AE000080CB2EB0C0200FA0CF0AABF00EBC250EB
:100AF00052421843BCBFD0401843704792F0000FD9
:100B000081F4000106BF80F400000132013BB5E72B
:100B10004FEA41037FEA226C18BF7FEA236C21D0A1
:100B200092EA030F04D092F0000F08BF0846704706
:100B300090EA010F1CBF0020704712F07F4F04D1D4
:100B4000400028BF40F00040704712F100723CBFE7
:100B500000F50000704700F0004343F0FE4040F411
:100B6000000070477FEA226216BF08467FEA2363CF
:100B70000146420206BF5FEA412390EA010F40F4BA
:100B8000800070474FF0000304E000BF10F0004306
:100B900048BF40425FEA000C08BF704743F09643ED
:100BA00001464FF000001CE050EA010208BF704708
:100BB0004FF000030AE000BF50EA010208BF70478F
:100BC00011F0004302D5404261EB41015FEA010CA4
:100BD00002BF84460146002043F0B64308BFA3F19C
:100BE0008053A3F50003BCFA8CF2083AA3EBC2537E
:100BF00010DB01FA02FC634400FA02FCC2F120029D
:100C0000BCF1004F20FA02F243EB020008BF20F0D3
:100C10000100704702F1200201FA02FCC2F1200239
:100C200050EA4C0021FA02F243EB020008BF20EA2E
:100C3000DC7070477BB972B90029BEBF00204FF04D
:100C4000004106E008BF00281CBF6FF000414FF0D4
:100C5000FF3000F0BFB9ADF1080C6DE904CE0029FA
:100C600009DB002B1ADB00F04DF8DDF804E0DDE9CC
:100C7000022304B07047404261EB4101002B1BDBB3
:100C800000F040F8DDF804E0DDE9022304B0404262
:100C900061EB4101524263EB43037047524263EB05
:100CA000430300F02FF8DDF804E0DDE9022304B08F
:100CB000404261EB41017047524263EB430300F055
:100CC00021F8DDF804E0DDE9022304B0524263EBD1
:100CD0004303704753B94AB9002908BF00281CBF15
:100CE0004FF0FF314FF0FF3000F074B9ADF1080C58
:100CF0006DE904CE00F006F8DDF804E0DDE902233A
:100D000004B070472DE9F047089D04468E46002B3D
:100D10004DD18A42944669D9B2FA82F252B101FAAF
:100D200002F3C2F1200120FA01F10CFA02FC41EABF
:100D3000030E94404FEA1C48210CBEFBF8F61FFA44
:100D40008CF708FB16E341EA034306FB07F19942DF
:100D50000AD91CEB030306F1FF3080F01F81994292
:100D600040F21C81023E63445B1AA4B2B3FBF8F06C
:100D700008FB103344EA034400FB07F7A7420AD9F3
:100D80001CEB040400F1FF3380F00A81A74240F21B
:100D900007816444023840EA0640E41B00261DB186
:100DA000D4400023C5E900433146BDE8F0878B42BB
:100DB00009D9002D00F0EF800026C5E9000130467A
:100DC0003146BDE8F087B3FA83F6002E4AD18B4254
:100DD00002D3824200F2F980841A61EB03030120FE
:100DE0009E46002DE0D0C5E9004EDDE702B9FFDEEA
:100DF000B2FA82F2002A40F09280A1EB0C014FEA95
:100E00001C471FFA8CFE0126200CB1FBF7F307FBF1
:100E1000131140EA01410EFB03F0884208D91CEB94
:100E2000010103F1FF3802D2884200F2CB80434631
:100E3000091AA4B2B1FBF7F007FB101144EA014410
:100E40000EFB00FEA64508D91CEB040400F1FF319F
:100E500002D2A64500F2BB800846A4EB0E0440EA8D
:100E600003409CE7C6F12007B34022FA07FC4CEA96
:100E7000030C20FA07F401FA06F31C43F9404FEA89
:100E80001C4900FA06F3B1FBF9F8200C1FFA8CFE9E
:100E900009FB181140EA014108FB0EF0884202FAF2
:100EA00006F20BD91CEB010108F1FF3A80F08880B3
:100EB000884240F28580A8F102086144091AA4B270
:100EC000B1FBF9F009FB101144EA014100FB0EFEF1
:100ED0008E4508D91CEB010100F1FF346CD28E4520
:100EE0006AD90238614440EA0840A0FB0294A1EBB1
:100EF0000E01A142C846A64656D353D05DB1B3EB0E
:100F0000080261EB0E0101FA07F722FA06F3F1403D
:100F10001F43C5E9007100263146BDE8F087C2F1E4
:100F20002003D8400CFA02FC21FA03F3914001435C
:100F30004FEA1C471FFA8CFEB3FBF7F007FB103695
:100F40000B0C43EA064300FB0EF69E4204FA02F441
:100F500008D91CEB030300F1FF382FD29E422DD994
:100F6000023863449B1B89B2B3FBF7F607FB1633C9
:100F700041EA034106FB0EF38B4208D91CEB010149
:100F800006F1FF3816D28B4214D9023E6144C91AC9
:100F900046EA004638E72E46284605E70646E3E6D9
:100FA0001846F8E64B45A9D2B9EB020864EB0C0EE3
:100FB0000138A3E74646EAE7204694E74046D1E7F2
:100FC000D0467BE7023B614432E7304609E76444A0
:100FD000023842E7704700BF704700BF10B5094BA9
:100FE00000244FF0FF321A621C625A625C621A617E
:100FF0001C615A615C619A619C61FFF7EDFF2046BC
:1010000010BD00BF0038024038B50E4A0E4B1278B2
:101010001B6805464FF47A70B0FBF2F0B3FBF0F0BA
:1010200000F018FB08B90F2D01D9012038BD044686
:10103000024629464FF0FF3000F0ACFA034B204641
:101040001D6038BD00000020340000200400002096
:1010500008B50B4B1A6842F400721A601A6842F421
:1010600080621A601A6842F480721A60032000F0ED
:101070007FFA0020FFF7C8FF08F060F8002008BDE5
:10108000003C0240014B1868704700BF240200205A
:1010900038B50446FFF7F6FF631C054602D0044B43
:1010A0001B781C44FFF7EEFF431BA342FAD338BD65
:1010B00000000020002800F09F8038B5056C044631
:1010C0003DB1236CDB060CD5002384F83C300120B5
:1010D00038BD08F051F86564236C84F83C50DB0699
:1010E000F2D4236C484A23F4885323F0020343F0DC
:1010F000020323645168236821F440315160516830
:101100006068014351605A682569A06822F48072C2
:101110005A60596841EA05215960596821F04071C7
:1011200059605A6802435A609968E06821F4006186
:1011300099609A68A16A02439A60344A914252D0F7
:101140009868E56A20F0706098609A681143996029
:10115000996821F0405199609A682A439A609A6888
:1011600022F002029A609A68217E42EA41029A6065
:1011700094F82020002A41D05968626A41F4006145
:101180005960586820F460405860511E5A6842EA1D
:1011900041325A60DA6AE169656922F47002DA6202
:1011A000DA6A013942EA0152DA62996821F400717F
:1011B0009960996894F8302041EA422199609968D1
:1011C00021F4806199609A68002042EA85229A6041
:1011D0006064236C23F0030343F0010323640023C2
:1011E00084F83C3038BD9A6822F070629A609A6840
:1011F00022F040529A60B2E7012070475A6822F408
:1012000000625A60C6E700BF002301400100000FE2
:1012100010B490F83C3083B00021012B019177D0BD
:101220000123016880F83C308B68DC07024614D447
:101230003C4B3D4C1B688868A4FB03439B0C03EBB1
:10124000430340F0010088600193019B2BB1019B97
:10125000013B0193019B002BF9D18868136C10F0BE
:10126000010031D023F4E06323F0010343F48073E1
:1012700013644B68580505D5136C23F4405343F4AD
:1012800080531364136C294C13F480531CBF536CAC
:1012900023F00603536400206FF0220382F83C0021
:1012A0000B60636813F01F0319D1214A914226D0C5
:1012B00002F5807291421FD01E4A91422DD000202B
:1012C00003B05DF8044B704743F010031364536C94
:1012D00043F00103536403B05DF8044B7047144BB3
:1012E0009942F8D18B6813F04053F4D18A6842F0E8
:1012F000804218468A60EEE76268D206DFD18868CD
:1013000010F04050DBD18B6843F080438B60E2E704
:10131000022003B05DF8044B70476268D306CED458
:10132000EDE700BF3400002083DE1B4300230140B3
:10133000002001400022014003689A6870B50D4604
:101340005105044602D59B68DA0545D4FFF79AFE9D
:10135000226806466B1C24D113689807FCD56FF0F1
:1013600012031360236C43F400732364936813F037
:10137000405F14D1207E90B9D36A13F4700F02D06D
:1013800093685A050BD4236C23F480732364236C75
:10139000DB0404D4236C43F00103236470BD0020FC
:1013A00070BD13689907DAD45DB9136813F00203AE
:1013B000D0D1226C84F83C3042F004022264032035
:1013C00070BDFFF75FFE801BA8422268C2D9136878
:1013D00013F00203BED1ECE7036C002243F02003BC
:1013E00080F83C200364012070BD00BF0368D86C06
:1013F000704700BF30B590F83C3083B00022012B1D
:10140000019200F09B80012380F83C300C68036857
:10141000092C2DD81D698A6804EB440E4FF0070C87
:101420000CFA0EFC25EA0C051D611D6902FA0EF28C
:101430002A431A614A68062AA4462FD802EB820280
:10144000596B053A4FF01F0E0CFA02FC0EFA02F22D
:1014500021EA02025A635A6B4CEA02025A633F4A7B
:10146000934230D0002380F83C30184603B030BDA2
:101470001FFA84FC0CEB4C02DD68A2F11E0E072261
:1014800002FA0EF225EA0202DA608A68DD6802FAE0
:101490000EF22A43DA604A68062ACFD90C2A02EBF8
:1014A000820232D8196B233A1F250CFA02FC05FA86
:1014B00002F221EA02021A631A6B4CEA02021A6370
:1014C000264A9342CED1122C2ED0254B9C4238D1A5
:1014D000244A254B5168254C21F480015160516804
:1014E00041F4000151601B68A4FB03239B0C03EB38
:1014F00083035B000193019B002BB3D0019B013B55
:101500000193019B002BF9D1ACE7D96A413A1F2521
:101510000CFA02FC05FA02F221EA0202DA62DA6A45
:101520004CEA0202DA629AE70E4B5A6822F4000291
:101530005A605A6842F480025A6093E7022003B06E
:1015400030BD112C8ED1074B5A6822F480025A60AC
:101550005A6842F400025A6084E700BF002001404C
:1015600012000010002301403400002083DE1B43E2
:101570000749CA6803024FF6FF0003F4E063024024
:10158000134343F0BF6343F40033CB60704700BFA5
:1015900000ED00E01C4BDB68C3F3022300B5C3F190
:1015A000070EBEF1040F03F1040C28BF4FF0040E28
:1015B000BCF1060F1BD9033B4FF0FF3C0CFA03FCB8
:1015C00022EA0C024FF0FF3C0CFA0EFC21EA0C015F
:1015D0009940002841EA02010CDB00F1604009015A
:1015E00000F56140C9B280F800135DF804FB0022E9
:1015F0001346E7E7054B00F00F0009010344C9B2A9
:1016000019765DF804FB00BF00ED00E0FCEC00E0A3
:10161000002808DB4109044A00F01F00012303FAF7
:1016200000F042F82100704700E100E000280DDBE7
:10163000430907490122203300F01F0002FA00F09D
:1016400041F82300BFF34F8FBFF36F8F704700BF88
:1016500000E100E00138B0F1807F10D210B44FF00B
:10166000E023084C58614FF0F00C84F823C00022AE
:10167000072110469A615DF8044B196170470120FB
:10168000704700BF00ED00E080B110B5437904461B
:1016900003F0FF021BB101236371002010BD027132
:1016A00007F0A2FD01236371002010BD01207047E7
:1016B00010B4022304684371A36843F00103844615
:1016C000A3603AB1043901EB820251F8043F236070
:1016D0009142FAD1012320688CF805305DF8044B63
:1016E000704700BF38B50446FFF7CCFC002C52D041
:1016F00023680022022184F8351084F834201A6807
:1017000022F0010205461A6005E0FFF7BBFC431B0F
:10171000052B39D823681A68D107F6D4D4E90120FB
:10172000E16802430A43D4E90451A0692A430A4309
:10173000E1691D6802430A4333492940256A2A4367
:101740000A43616A042928D01A605A6922F0070204
:101750001143D8B22D4A59611038A2FB0052120928
:101760002B4923F47F73895CE16523F003035F2831
:1017700088BF04333F228A40A36500209A6001237A
:10178000606584F8353038BD03232022626584F813
:101790003530184638BD012038BDD4E90B512943F6
:1017A0000A431A605969A26A21F00701114341F006
:1017B0000401002DCDD078B1B0F5005F16D0022A1B
:1017C00003D9032AC5D1EA01C3D5012340226265AA
:1017D00084F83530184638BD012A03D032F00202B1
:1017E000B7D1F0E7B5F1C07FB3D1EEE7032AB0D8A7
:1017F00001A050F822F000BFCB170208C71702085B
:10180000CB170208E51702083F8010F0ABAAAAAA7E
:1018100040CC020830B4002835D090F83530022B87
:10182000DCB22DD003681A4A1A4DD9B21039A2FB86
:10183000014212091C68AD5C24F0010400221C6006
:101840001A605A609A60DA601A6121225A6123F4A0
:101850007F7323F003035F2988BF04333F210022F5
:10186000A940C0E90F22C0E91122C0E91322C565D1
:10187000836514469960426580F8342080F83520ED
:10188000204630BC70470124204630BC704700BF62
:10189000ABAAAAAA40CC020870B490F83440856D77
:1018A000012C35D090F835404FF0010C644580F89C
:1018B00034C005D0002380F8343070BC022070475B
:1018C000022680F83560046800264665266826F4FE
:1018D0008026266063608368402B0EBFA260A160F3
:1018E000E260C26D08BFE1603F239340AB602368B4
:1018F000026C43F0160323601AB1236843F0080317
:101900002360236843F001030020236070BC70470C
:10191000022070BC704700BF70B50446866DFFF7AB
:10192000B1FB94F83530022B06D00023802284F8D6
:1019300034306265012070BD23681A6822F01602F7
:101940001A605A6922F080025A61226C054632B34D
:101950001A6822F008021A601A6822F001021A605E
:1019600005E0FFF78FFB431B052B0FD823681B688F
:1019700013F00103F5D1E16D3F228A400121B260ED
:1019800084F8351084F83430184670BD03202022C6
:101990000023626584F8343084F8350070BDA26C91
:1019A000002AD5D1D8E700BF90F83530022B03D0FC
:1019B00080234365012070470268052380F8353095
:1019C000136823F001030020136070472DE9F041F4
:1019D00082B0744A866D156800230193C36D346824
:1019E00008229A402242804604D001680F68780796
:1019F00000F18A8001229A40224204D0D8F80010D7
:101A00004969090678D404229A40224204D0D8F8C1
:101A1000001009688F0767D410229A40224204D030
:101A2000D8F800100F68380749D420229A40224283
:101A300017D0D8F800100C68E00612D5B26098F8FC
:101A40003520052A73D00B6813F4802F0B6800F043
:101A50009080190340F19B80D8F83C300BB1404690
:101A60009847D8F854303BB3D8F85430DA071BD530
:101A7000D8F800204C49052388F835301368A1FBBD
:101A8000051523F00103AD0A136002E01368DB07BC
:101A900004D5019B0133AB420193F7D90122002306
:101AA00088F8352088F83430D8F84C3023B14046D7
:101AB00002B0BDE8F041184702B0BDE8F081B26065
:101AC0000A6812F4802F0A682AD1D70503D40A685D
:101AD00022F008020A60D8F84020002AA5D040462B
:101AE0009047D8F85C30A0E7B260D8F8542042F0B4
:101AF0000402C8F854208FE7B260D8F8542042F0AE
:101B00000202C8F854207EE70F6827F004070F6030
:101B1000B260D8F8542042F00102C8F8542069E7B6
:101B20001203D8D5D8F84820002AD8D17DE70A6812
:101B300022F016020A604A6922F080024A61D8F84F
:101B4000402052B30A6822F008020A603F2202FADB
:101B500003F3D8F85010B3600122002388F8352031
:101B600088F834300029A7D0404602B0BDE8F041E3
:101B7000084713F480737FF46FAF0A6822F01002F5
:101B80000A60012288F8352088F8343064E7D8F8F4
:101B90004430002B7FF463AF63E7D8F84820002A75
:101BA000D0D1D3E734000020B5814E1B214BDA6839
:101BB000D00605D52049CA6910200243CA61D86001
:101BC0001C4BDA68910606D51B49CA69202042F0F1
:101BD0000802CA61D860174BDA68520606D5164962
:101BE000CA69402042F00402CA61D860114BDA6829
:101BF000100606D51049CA69802042F00202CA6167
:101C0000D8600C4BDA68D10507D50B49CA694FF487
:101C1000807042F00102CA61D860064BDA68920710
:101C200006D50549CA69022042F02002CA61D8607F
:101C3000704700BF003C0240280200202DE9F84F09
:101C40004D4F9B463B7E012B60D001233B7600230A
:101C500081468A469046FB61FFF714FA474D0446D9
:101C60004CF2503604E0FFF70DFA001BB04248D8A2
:101C7000EB68D803F7D4EB68D90744BF0123EB60C6
:101C80003E4BDA6812F4F97F54D1B9F1000F40D01D
:101C9000B9F1010F1A6951D022F440721A61B9F1F9
:101CA000020F1A695ED042F440721A611A6942F05A
:101CB00001021A61CAF80080BFF36F8FCAF804B03E
:101CC0000023FB61FFF7DEF92C4D04464CF2503641
:101CD00004E0FFF7D7F9001BB04229D8EB68DA031C
:101CE000F7D4EB68DB0744BF0123EB60234BD868D4
:101CF00010F4F97032D1214A136923F00103136102
:101D000000E0032000233B76BDE8F88F0220BDE809
:101D1000F88F196921F4407119611A691A611969FA
:101D20005FFA88F841F0010119618AF80080C7E77D
:101D30000320E0E7FFF73AFF0120E3E722F44072D7
:101D40001A611A6942F480721A611A691FFA88F8D6
:101D500042F001021A61AAF80080B1E7FFF726FFFE
:101D60000120C8E742F400721A611A6942F00102C8
:101D70001A61CAF80080A3E728020020003C024054
:101D8000064B1A69002A01DB002070470449054A06
:101D900059605A601869C00F704700BF003C02408C
:101DA00023016745AB89EFCD034A136943F0004334
:101DB00000201361704700BF003C0240144B70B517
:101DC00000220446DA61FFF75DF9124E0546631CF6
:101DD0000FD1104AD368D803FCD40E4BDA68D2076F
:101DE00044BF0122DA600B4BD86810F4F9700BD1B4
:101DF00070BDF368D903F0D524B1FFF743F9401B58
:101E0000A042E4D9032070BDFFF7D0FE012070BDD1
:101E100028020020003C024039B101291CD00229CF
:101E20000CBF4FF400714FF440710D4B1A6922F44E
:101E300040721A611A69114319611A6922F0F80295
:101E40001A611A6942EAC00040F0020018611A697A
:101E500042F480321A6170474FF48071E5E700BFA9
:101E6000003C02402DE9F04F00220C68DFF814A27C
:101E70007D4E85B01346894605E00133102B02F1F3
:101E8000020200F084800121994001EA040BA14381
:101E9000F3D1D9F804C00CF003014D1E012D79D9FE
:101EA000032940F0B9809140CD4307683D40294364
:101EB0001CF4403F0160E0D000210391DAF84410A7
:101EC00041F48041CAF84410DAF8441001F480412A
:101ED0000391039923F0030101F1804101F59C3145
:101EE00003F00307D1F808E0BF000F25BD402EEA3C
:101EF00005085E4DA8421FD005F58065A84200F098
:101F00008F805B4DA84200F092805A4DA84200F0AD
:101F10009580594DA84200F09880584DA84200F095
:101F20009B80574DA8420CBF4FF0060E4FF0070E96
:101F30000EFA07F748EA0708C1F80880B1686FEAA7
:101F40000B071CF4801F0CBF39404BEA0101B16044
:101F5000F5681CF4001F0CBF3D404BEA0505F56019
:101F600075681CF4003F0CBF3D404BEA05057560E9
:101F700031681CF4803F03F101030CBF39404BEA88
:101F80000101102B316002F102027FF47CAF05B039
:101F9000BDE8F08FD9F80C50876805FA02F80325E0
:101FA00005FA02FE27EA0E0748EA07078760476836
:101FB0006FEA0E0527EA0B0ECCF300179F4047EAA5
:101FC0000E074760C76807EA050ED9F80870974002
:101FD00047EA0E070229C76001FA02F17FF465AFF4
:101FE0004FEAD30E00EB8E0E03F00708DEF82070E8
:101FF0000097D9F810704FEA880807FA08F7019798
:102000000F2707FA08F8009F27EA0808019F47EA08
:102010000807CEF8207048E703259540ED43D1E747
:102020004FF0010E0EFA07F748EA070884E74FF071
:10203000020E0EFA07F748EA07087DE74FF0030E95
:102040000EFA07F748EA070876E74FF0040E0EFA93
:1020500007F748EA07086FE74FF0050E0EFA07F793
:1020600048EA070868E700BF003C01400000024062
:1020700000080240000C0240001002400014024020
:1020800000180240003802402DE9F04F0023DFF82D
:102090005091DFF85081DFF850A183B0012702E0B2
:1020A0000133102B75D007FA03F232EA010402EA79
:1020B000010CF5D123F0030505F1804505F59C35AC
:1020C00003F00304D5F808E0A4000F26A640484515
:1020D000019606EA0E0E5FD050455FD03B4EB042EF
:1020E0005FD03B4EB04261D03A4EB04263D03A4EE0
:1020F000B04265D0394EB04214BF4FF0070B4FF0DD
:10210000060B0BFA04F4A6451CD1D8F80040019E3A
:1021100024EA0C04C8F80040D8F8044024EA0C046F
:10212000C8F80440D8F80C4024EA0C04C8F80C4065
:10213000D8F8084024EA0C04C8F80840AC6824EA3F
:102140000606AE60056803265C0006FA04F425EA7C
:102150000405056023FA06F500EB850503F0070C7E
:102160002E6A4FEA8C0E4FF00F0C0CFA0EFC26EA8A
:102170000C062E62C56825EA0405C560456825EA97
:10218000020242608268013322EA0404102B846058
:1021900089D103B0BDE8F08F0024B4E707FA04F456
:1021A000B1E74FF0020B0BFA04F4ACE74FF0030B6E
:1021B0000BFA04F4A7E74FF0040B0BFA04F4A2E7C0
:1021C0004FF0050B0BFA04F49DE700BF0008024036
:1021D000000C0240001002400014024000180240AF
:1021E00000000240003C01400004024002B9090422
:1021F000816170472DE9F04F046883B098462368E9
:10220000DDF83090DDF834B043F4807306468A463A
:1022100017462360B9F1FF3F35D16569E807FCD562
:102220000AF0FE012161B9F1FF3F03D04EE0616980
:102230004D055CD461698B07F9D50023019363696F
:102240000193A3690193019BB9F1FF3F40F087809F
:1022500063691A0663D463695B05F9D500222023FC
:102260006FF480616161326386F83D3086F83E200C
:10227000336C86F83C2043F004033364336C042B46
:1022800066D001201FE06369D907C9D4FEF7FAFEC2
:10229000A0EB0B00814504D3B9F1000F01D03468E5
:1022A000B8E700232022336386F83D2086F83E30CD
:1022B000326C316886F83C3042F0200232640B68A0
:1022C000DC0535D4032003B0BDE8F08F63699807BF
:1022D000B3D463695A050AD4FEF7D4FEA0EB0B0011
:1022E00081454ED3B9F1000F4BD034689BE723688A
:1022F00043F40073236000226FF480612023616146
:10230000326386F83D3086F83E20336C86F83C20F8
:1023100043F004030120336403B0BDE8F08FB8F14B
:10232000010F09D1FFB20020276103B0BDE8F08F93
:102330004FF400733364C5E73B0A2361B9F1FF3FF3
:102340002ED163691906EDD463695A05F9D585E77D
:102350003268136843F4007301201360B3E76369C4
:102360001D06DCD4636959053FF578AFFEF78AFE98
:10237000A0EB0B00814525D3B9F1000F22D03468C2
:1023800062E700222023326386F83D3086F83E2043
:10239000336C86F83C2043F020033364012092E73D
:1023A00063691B06BED4636958053FF557AFFEF756
:1023B00069FEA0EB0B00814504D3B9F1000F01D0F9
:1023C0003468BBE700222023326386F83D3086F86C
:1023D0003E20336C86F83C2043F0200333644DE705
:1023E0002DE9F04F04689846236843F48063236026
:1023F000236883B043F48073DDF830A0DDF83490B7
:10240000236006468B461746BAF1FF3F39D165690E
:10241000EB07FCD50BF0FE0323615FFA8BFBBAF1EF
:10242000FF3F03D068E061694A0550D461698907BC
:10243000F9D50023019363690193A3690193019B7B
:10244000BAF1FF3F40F0B8806369180667D463694A
:102450005905F9D5002220236FF480616161326350
:1024600086F83D3086F83E20336C86F83C2043F0F9
:1024700004033364336C042B6CD0012003B0BDE83B
:10248000F08F6369DD07C5D4FEF7FCFDA0EB090002
:10249000824504D3BAF1000F01D03468B4E70023B9
:1024A0002022336386F83D2086F83E30326C316856
:1024B00086F83C3042F0200232640B68DC0502D51D
:1024C0004FF400733364032003B0BDE8F08F23683A
:1024D00043F400732360002220236FF48061616164
:1024E000326386F83D3086F83E20336C86F83C2017
:1024F00043F004033364C0E763699B0799D46369BD
:102500005805E4D4FEF7BEFDA0EB09008245C0F0FB
:102510008B80BAF1000F00F0878034687FE7B8F154
:10252000010F0BD1FFB22761BAF1FF3F6AD1636996
:102530001B0616D463695F05F9D58BE73B0A236157
:10254000BAF1FF3F7FD163691D06EBD4636958057B
:10255000F9D57FE73268136843F4007301201360F4
:102560008CE7236843F480732360BAF1FF3F13D1F3
:102570006369D807FCD54BF001032361BAF1FF3F33
:1025800003D02BE063695B05A1D46369DB4313F0DF
:102590000203F7D1184671E76369D907EBD4FEF758
:1025A00071FDA0EB09008245FFF479AFBAF1000F8D
:1025B0003FF475AF3468D8E763691A06AFD463692E
:1025C0005D053FF547AFFEF75DFDA0EB09008245D5
:1025D0004CD3BAF1000F49D0346831E76369DB436B
:1025E00013F00203D6D063695A053FF570AFFEF7CA
:1025F00049FDA0EB0900824516D3BAF1000F13D0B4
:102600003468BBE763691D06ABD463695A053FF5BF
:1026100021AFFEF737FDA0EB0900824526D3BAF1C2
:10262000000F23D034687FE700222023326386F82E
:102630003D3086F83E20336C86F83C2043F0200382
:10264000336401201AE7636919063FF56BAF6369CC
:102650005B053FF5FFAEFEF715FDA0EB09008245D7
:1026600004D3BAF1000F01D0346869E700222023B7
:10267000326386F83D3086F83E20336C86F83C2085
:1026800043F020033364F5E6002800F0B98070B50C
:1026900090F83D30044603F0FF02002B00F09880D4
:1026A0002368242284F83D201A6822F001021A606F
:1026B0001A6842F400421A601A6822F400421A6052
:1026C00000F026FC63684F498B424FD84E4A904237
:1026D0007CD94E4D5A00A5FB0035431EB3FBF2F3E7
:1026E0002268506820F03F0040EA95405060A90CF5
:1026F00001F1010C116A21F03F0141EA0C01116264
:10270000D16940F6FC7E013321F44F4113EA0E0FEC
:1027100021F0FF0161D104230B43D361D4E90730D9
:102720001168034321F0C0010B4313609168D4E9A1
:10273000030321F40341034321F0FF010B439360A2
:10274000D4E90530D168034321F0FF010B43D36086
:102750001168002341F0010120201160236484F8F6
:102760003D00236384F83E30184670BD284A9042ED
:102770002CD9264D274EA5FB002C2268556825F044
:102780003F0545EA9C4555604FEA9C414FF49675DC
:1027900005FB01F1A6FB0151156A890925F03F05EA
:1027A000013129431162D169A56821F44F4121F01B
:1027B000FF01ADB9013803EB4303B0FBF3F3013381
:1027C000C3F30B03D3B143F40043A5E7012070BD6D
:1027D00080F83C2006F022FD62E7C3F30B039BE781
:1027E00003EB8303013803EB8303B0FBF3F3013303
:1027F000C3F30B0313B143F440438DE701238BE78D
:1028000001207047A08601007F841E0083DE1B43E9
:10281000FF083D00D34D62102DE9F04F044683B010
:102820009946BDF834A00E9E0F469046FEF72AFC4E
:1028300094F83D30202B04D00227384603B0BDE881
:10284000F08F054605E0FEF71DFC401B192800F23D
:10285000AA80206883696FEA030C1CF0020BF2D097
:1028600094F83C30012BE7D0012384F83C30036816
:10287000DB0771D53946076827F4006707600C98B5
:1028800060622120CDE9006584F83D00402084F895
:102890003E0000202064A4F82AA0608D20855748BF
:1028A000E0624B4642462046FFF7A4FC0746F8B9D3
:1028B000238D002B00F0A0802368721C58D15A6928
:1028C00010061AD45A695105F9D500226FF48060B8
:1028D00020215861226384F83D1084F83E20236C47
:1028E00084F83C2043F004032364236C042B38D089
:1028F0000127384603B0BDE8F08FD4F824C0B4F8FF
:1029000028E061460EF1FF3011F8012B1A61628D4B
:102910006162013A92B2628582B2586922854007AB
:1029200017D542B9721C59D15A69500749D45A690E
:102930005105F9D5C9E79CF8011019610CF10201A4
:102940006162618DAEF10202013992B289B22285D3
:102950006185002AB1D1E5E7036843F00103036014
:1029600088E72268136843F400730127136064E763
:102970005A691206C1D45A695105A6D4FEF782FBE2
:10298000401B864201D3002E96D1002220232263D1
:1029900084F83D3084F83E20236C84F83C2043F0DA
:1029A00020032364A1E72023C4F830B084F83D302D
:1029B00084F83EB0236C84F83CB043F020032364D9
:1029C0003AE71A68002142F4007220201A6084F865
:1029D0003D0084F83C1084F83E102EE75A695207F7
:1029E000EFD45A6951053FF570AFFEF74BFB401B22
:1029F0008642CAD3002EC8D0236893E70000FFFFA9
:102A00002DE9F04F044687B09946BDF844A0129DC9
:102A10000F469046FEF736FB94F83D30202B04D04D
:102A20000227384607B0BDE8F08F064605E0FEF7FE
:102A300029FB801B192800F2D280D4F800C0DCF8F2
:102A40001800C04310F0020BF1D094F83C30012B79
:102A5000E6D0012384F83C30DCF80030D90737D5C4
:102A6000DCF8000020F40060CCF8000010986062F0
:102A70002220CDE9005684F83D00402084F83E0035
:102A800000202064A4F82AA0608D20859348E0628D
:102A900039464B4642462046FFF7A2FC074600282F
:102AA00040F0AB80228DD2B9236802905A6902921D
:102AB0009A690292029A1A6842F400721A6000231C
:102AC000202284F83D2084F83C3084F83E30A8E78A
:102AD000DCF8003043F00103CCF80030C0E7012AF5
:102AE00000F02C81022A00F0BD802368059059690E
:102AF0000591996905910599032A49D8012A00F0A1
:102B0000EB80022A00F08980691C40F0BB805A6982
:102B10005207FCD51A68616A22F480621A601B6948
:102B20000B70638D616A228D013B0131013A9BB2CA
:102B3000616222856385691C226840F0AF80536919
:102B40005B07FCD51368616A43F400731360136973
:102B50000B70638D228D606A2168013B9BB2638597
:102B60000969531E00F1010C2385C4F824C041708B
:102B7000228D638D616A013A013B013192B29BB2B1
:102B8000616222856385002A99D0032A2368B5D91A
:102B90005DB9C5E05A69D00600F1B280FEF772FA5D
:102BA000801B8542C0F0868023685A695206F1D5A1
:102BB000626A1B691370638D2068228D616A013B14
:102BC0009BB263854369013A92B201F1010C5B0744
:102BD0002285C4F824C0D6D503694B7036E0202383
:102BE000C4F830B084F83D3084F83EB0236C84F8EB
:102BF0003CB043F02003236412E70127384607B0B6
:102C0000BDE8F08F5A6950070CD4FEF73BFA801BE1
:102C100085424FD3002D4DD02368691CF2D15A69EB
:102C20005207FCD51A6842F400721A601A69636A86
:102C30001A70638D626A013B9BB26385238D013BF1
:102C400023852368511C1B6961625370636A228D5E
:102C500001336362638D013A013B92B29BB22285DC
:102C6000638590E72368196821F480611960196809
:102C700041F40061196004905969049199690491C3
:102C8000049939E75A6950073FF544AFFEF7FAF95E
:102C9000801B85420ED36DB1236835E75369580711
:102CA0003FF550AFFEF7EEF9801B854202D3002DB1
:102CB0007FF441AF00222023226384F83D3084F862
:102CC0003E20236C84F83C20012743F02003384643
:102CD000236407B0BDE8F08F5DB92BE00000FFFF73
:102CE0005A69D2060CD4FEF7CDF9801B8542E1D398
:102CF00023685A695106F3D51A69636A1A70A5E701
:102D000000226FF0100020215861226384F83D10EA
:102D100084F83E20236C236484F83C20012780E65D
:102D20005A6952063FF544AF5A69D106E8D4FEF716
:102D3000A9F9BFE75A695006F6D5DDE72368196897
:102D400021F4806119600390596903919969039195
:102D50000399196841F400711960CDE630B583B06C
:102D6000194B1A491A4D002201921A6C42F08052F6
:102D70001A641B6C03F0805301930122019B0A64C7
:102D8000FEF780F9044605E0FEF77CF9001BB0F57C
:102D90007A7F16D86B68DA03F6D50C4B0C4D0122FE
:102DA0005A64FEF76FF9044605E0FEF76BF9001B65
:102DB000B0F57A7F05D86B689B03F6D5002003B089
:102DC00030BD032003B030BD0038024000000E4289
:102DD00000700040002800F08780484A136803F024
:102DE0000F038B422DE9F0410D46044609D2CBB2C8
:102DF0001370136803F00F038B4202D00120BDE86B
:102E0000F0812368980714D5590704D53C498A688E
:102E100042F4E0528A601A0704D539498A6842F4BC
:102E200060428A603649A0688A6822F0F002024354
:102E30008A60DF0721D56268012A57D0931E012BD3
:102E40002F4B1B684DD99907D8D52D4EB36823F069
:102E500003031343B360FEF715F941F288380746C0
:102E600004E0FEF70FF9C01B404544D8B368626820
:102E700003F00C03B3EB820FF3D1204A136803F085
:102E80000F03AB4206D9EBB21370136803F00F03C4
:102E9000AB42B3D123685A0706D51949E0688A685E
:102EA00022F4E05202438A601B0707D5144A2169C5
:102EB000936823F4604343EAC103936000F048F849
:102EC0000F4A104C92681049C2F303120346A25CE9
:102ED0000E48D34000680B60FEF796F80020BDE86E
:102EE000F0819801B1D489E701207047044B1B6839
:102EF0009E03AAD482E7032081E700BF003C024082
:102F00000038024094D00208340000200400002061
:102F1000044B05499B68054A0868C3F38223D35CC8
:102F2000D84070470038024034000020A4D0020886
:102F3000044B05499B68054A0868C3F34233D35CD8
:102F4000D84070470038024034000020A4D0020866
:102F5000274908B58B6803F00C03082B07D00C2B0E
:102F60001DD0244A2448042B08BF104608BD4A68D7
:102F70004B68496813F4800302F03F022ED11E48CB
:102F8000C1F38811A1FB0001FDF7A4FE184B5B689B
:102F9000C3F3014301335B00B0FBF3F008BD4A68A3
:102FA0004B68496813F4800302F03F020DD11248C8
:102FB000C1F38811A1FB0001FDF78CFE0C4B5B688F
:102FC000C3F30273B0FBF3F008BD0A48C1F38811E4
:102FD0000023A1FB0001FDF77DFEEFE70548C1F3EB
:102FE00088110023A1FB0001FDF774FECEE700BFAE
:102FF0000038024000127A000024F400002800F09B
:10300000B3812DE9F0410368DA0782B0044636D572
:10301000A2498A6802F00C02042A00F0DF808A6864
:1030200002F00C02082A00F0D5809C498A6802F060
:103030000C020C2A00F005816368B3F5803F00F0B4
:103040001981B3F5A02F00F09681944D2A6822F4DF
:1030500080322A602A6822F480222A60002B40F005
:103060000E81FEF70FF8064605E0FEF70BF8801B11
:10307000642800F2FB802B689903F6D423689A0732
:103080002FD5864A916811F00C0F00F09880916856
:1030900001F00C01082900F08E8080498A6802F056
:1030A0000C020C2A00F06281E368002B00F014810E
:1030B0007B4B7A4E01221A60FDF7E4FF054605E0DE
:1030C000FDF7E0FF401B022800F2D080336898072C
:1030D000F6D53368226923F0F80343EAC20333606C
:1030E00023681A0751D4580730D56C4A136C13F073
:1030F000805300F09A8000256A4E3368D90540F16C
:10310000A580A368012B00F0CF80052B00F03D8146
:10311000624E326F22F001023267326F22F00402F7
:103120003267002B40F0C580FDF7ACFF41F28838D4
:10313000074605E0FDF7A6FFC01B404500F296805C
:10314000336F9807F6D4002D40F00881A069C0B114
:10315000524DAB6803F00C03082B00F0CE80504BAF
:10316000002202281A6600F01A81FDF78BFF044640
:1031700004E0FDF787FF001B022877D82B689B012E
:10318000F7D4002002B0BDE8F0816369002B2FD096
:10319000434B424E0122C3F8802EFDF773FF0546D4
:1031A00004E0FDF76FFF401B02285FD8736F9B0799
:1031B000F7D5236897E7526857023FF56EAF374A55
:1031C0001268950725D5E268012A22D0012002B0B5
:1031D000BDE8F0814A6857027FF527AF2F4A126891
:1031E00095037FF54CAF6268002A7FF448AFEDE7A6
:1031F0002B4A2A4EC2F8803EFDF744FF054604E004
:10320000FDF740FF401B022830D8736F9F07F7D4AB
:10321000CFE7224920690A6822F0F80242EAC00298
:103220000A601A077FF55FAFAFE70193136C43F0B5
:1032300080531364136C03F080530193019B0125A9
:103240005AE74A6856027FF5F7AEC7E7336843F49A
:1032500080733360FDF716FF07463368DA053FF5E4
:1032600050AFFDF70FFFC01B0228F6D9032002B0B4
:10327000BDE8F081094A136843F480331360FDF719
:1032800001FF064E054604E0FDF7FCFE401B6428E6
:10329000ECD833689803F7D5F0E600BF0038024059
:1032A0000000474200700040554A136F43F001038D
:1032B0001367FDF7E7FE524F064641F2883804E0F7
:1032C000FDF7E0FE801B4045D0D83B6F9B07F7D54C
:1032D000002D3FF43BAF41E04A4A494E1360FDF7F1
:1032E000D1FE054604E0FDF7CDFE401B0228BDD807
:1032F00033689907F7D42368F3E601283FF442AF17
:103300006B68E26903F4800191427FF45FAF226A47
:1033100003F03F0191427FF459AF616A47F6C072F2
:103320001A40B2EB811F7FF451AFA26A520803F436
:103330004031013AB1EB024F7FF448AFE16A03F04C
:103340007062B2EB016F7FF441AF226B03F0E04398
:10335000B3EB027F14BF0120002013E7284A136C4F
:1033600023F080531364F1E6012070474A68560247
:103370003FF59AAE23E7224B1A6842F480221A6086
:103380001A6842F480321A6079E71D4B1A6F42F0D6
:1033900004021A671A6F42F001021A6789E7FDF703
:1033A00071FE064605E0FDF76DFE801B02283FF624
:1033B0005DAF2B689901F6D4D4E90731626A0B43FB
:1033C00043EA8213D4E90A20216B43EA00635208DE
:1033D00043EA0173013A0B4943EA024301226B605D
:1033E0000A66FDF74FFE064D044605E0FDF74AFE6E
:1033F000001B02283FF63AAF2B689A01F6D5C0E6CB
:10340000003802400000474200285CD0416A70B595
:103410000446002947D00023C0E9043394F8512022
:103420000023A36202F0FF00002A42D09C462568D8
:10343000A268022384F851302B6823F040032B60EC
:10344000636802F4044203F482731343E26802F4F3
:1034500000621343226902F002021343626902F020
:1034600001021A43E36901F0100003F03806A16974
:10347000236A03F0800E01F4007313433343090CF5
:1034800043EA0E0301F0040143EA0C0301432B60FD
:103490006960EB69002023F400630122EB61606541
:1034A00084F8512070BD4368B3F5827FB6D0C16106
:1034B000B4E784F85000204605F0E8FED4E909138B
:1034C00003F4005CB3E70120704700BF002800F060
:1034D000878010B590F83D30044603F0FF02002BC2
:1034E00079D022683F49022384F83D308A4213682C
:1034F0005DD0B2F1804F31D0A1F57C418A422DD010
:1035000001F580618A4229D001F580618A4225D087
:1035100001F578418A424AD001F570518A4221D0A2
:1035200001F580618A421DD001F580618A4219D07F
:10353000A1F598318A4215D001F580618A4211D0F7
:1035400001F580618A420DD0A069E16823F0800313
:10355000034313606368D162936210E0A16823F0B3
:1035600070030B432069A16923F44073034323F0E4
:103570008003E0680B4361681360D06291620123AD
:10358000536184F8463084F83E3084F83F3084F844
:10359000403084F8413084F8423084F8433084F875
:1035A000443084F8453084F83D30002010BDA068D8
:1035B000216923F07003034323F440730B43A16993
:1035C00023F080030B431360E368D3626368936264
:1035D00063691363D3E780F83C2005F07FFF80E741
:1035E000012070470000014090F83D30012B2FD1A1
:1035F00003681949022280F83D20DA688B4242F0C4
:103600000102DA6019D0B3F1804F16D0134A934209
:1036100013D002F5806293420FD002F5806293428C
:103620000BD002F57842934207D002F570529342D4
:1036300003D0A2F59432934204D19A6802F00702B3
:10364000062A07D01A6842F0010200201A6070476B
:103650000120704700207047000001400004004036
:10366000704700BF002800F0878010B590F83D300B
:10367000044603F0FF02002B79D022683F49022361
:1036800084F83D308A4213685DD0B2F1804F31D06A
:10369000A1F57C418A422DD001F580618A4229D072
:1036A00001F580618A4225D001F578418A424AD0ED
:1036B00001F570518A4221D001F580618A421DD006
:1036C00001F580618A4219D0A1F598318A4215D05E
:1036D00001F580618A4211D001F580618A420DD0E6
:1036E000A069E16823F08003034313606368D1623B
:1036F000936210E0A16823F070030B432069A16975
:1037000023F44073034323F08003E0680B436168B4
:103710001360D06291620123536184F8463084F8CB
:103720003E3084F83F3084F8403084F8413084F8EB
:10373000423084F8433084F8443084F8453084F8CB
:103740003D30002010BDA068216923F070030343C1
:1037500023F440730B43A16923F080030B431360F0
:10376000E368D3626368936263691363D3E780F8A5
:103770003C20FFF775FF80E7012070470000014003
:10378000704700BF002800F0878010B590F83D30EA
:10379000044603F0FF02002B79D022683F49022340
:1037A00084F83D308A4213685DD0B2F1804F31D049
:1037B000A1F57C418A422DD001F580618A4229D051
:1037C00001F580618A4225D001F578418A424AD0CC
:1037D00001F570518A4221D001F580618A421DD0E5
:1037E00001F580618A4219D0A1F598318A4215D03D
:1037F00001F580618A4211D001F580618A420DD0C5
:10380000A069E16823F08003034313606368D16219
:10381000936210E0A16823F070030B432069A16953
:1038200023F44073034323F08003E0680B43616893
:103830001360D06291620123536184F8463084F8AA
:103840003E3084F83F3084F8403084F8413084F8CA
:10385000423084F8433084F8443084F8453084F8AA
:103860003D30002010BDA068216923F070030343A0
:1038700023F440730B43A16923F080030B431360CF
:10388000E368D3626368936263691363D3E780F884
:103890003C20FFF775FF80E70120704700000140E2
:1038A00000293DD190F83E30012B41D1022380F810
:1038B0003E3003680122186A01F01F0102FA01F18B
:1038C00020EA01001862186A2C4A014393421962E7
:1038D00038D002F58062934234D0B3F1804F14D0D7
:1038E00027498B4211D001F580618B420DD001F543
:1038F00080618B4209D0934207D002F57052934207
:1039000003D0A2F59432934204D19A6802F00702E0
:10391000062A20D01A6842F0010200201A6070477F
:10392000042922D0082918D090F84130012B01D069
:103930000120704704291CD0082912D0022380F8E6
:103940004130B6E75A6C42F400425A649A6802F079
:103950000702062ADED10020704790F84030012B84
:10396000E6D1022380F84030A3E790F83F30012BE6
:10397000DED1022380F83F309BE700BF000001400A
:103980000004004090F83C30012B00F0A980012396
:10399000F0B480F83C300C2A08D8DFE802F0350794
:1039A0000707580707077D0707070E00002280F862
:1039B0003C2001231846F0BC704702680E68136A69
:1039C00023F480531362146A5568D36923F4E643E1
:1039D00043EA06238E6824F4005444EA06345C4E1D
:1039E000B24200F09F8006F58066B24200F09A80F5
:1039F00049685560D36111641462002280F83C204C
:103A000000231846F0BC704702680E68136A23F062
:103A100001031362146A5568936923F073033343F7
:103A20008E6824F002043443494EB2425BD006F55E
:103A30008066B24257D04968556093615163146201
:103A4000002280F83C2000231846F0BC7047026832
:103A50000E68136A23F010031362146A55689369A1
:103A600023F4E64343EA06238E6824F0200444EA64
:103A70000614374EB24245D006F58066B24241D0B8
:103A800049685560936191631462002280F83C207C
:103A900000231846F0BC704702680E68136A23F4CE
:103AA00080731362146A5568D36923F07303334338
:103AB0008E6824F4007444EA0624254EB24237D0BE
:103AC00006F58066B24233D049685560D361D16350
:103AD0001462002280F83C2000231846F0BC704796
:103AE000022318467047CE6824F008043443D1E915
:103AF000057625F4407547EA060C24F004044CEAE8
:103B0000050598E7CE6824F0800444EA0614D1E95C
:103B1000057625F4406547EA060C24F0400445EAA2
:103B20008C05ADE74E6925F4804545EA86155FE7CB
:103B3000CE6824F4006444EA0624D1E9057625F42D
:103B4000405547EA060C24F4806445EA0C15BBE7AF
:103B50000000014090F83C30012B00F0D28001239E
:103B600070B5844680F83C300C2A08D8DFE802F0B3
:103B70003E0707076B0707079B0707070C00002393
:103B80008CF83C30012070BD03680D681A6A22F47D
:103B900080521A621A6A5C68D86920F4E64040EAEA
:103BA00005208D6822F4005242EA0532704DAB4286
:103BB00000F0C88005F58065AB4200F0C3805C6012
:103BC000D861486818641A62D8690C6940F40060CA
:103BD000D861D96921F48061D961DA6942EA0422A5
:103BE000DA6100238CF83C30002070BD03680D685A
:103BF0001A6A22F001021A621A6A5C68986920F057
:103C0000730028438D6822F002022A43584DAB42CC
:103C100079D005F58065AB4275D05C6098614868E5
:103C200058631A6298690C6940F0080098619969B4
:103C300021F0040199619A6922439A6100238CF86A
:103C40003C30002070BD03680D681A6A22F0100233
:103C50001A621A6A5C68986920F4E64040EA052016
:103C60008D6822F0200242EA0512414DAB4259D044
:103C700005F58065AB4255D05C60986148689863F3
:103C80001A6298690C6940F400609861996921F49E
:103C9000806199619A6942EA04229A6100238CF852
:103CA0003C30002070BD03680D681A6A22F48072EF
:103CB0001A621A6A5C68D86920F0730028438D681C
:103CC00022F4007242EA0522294DAB4240D005F5AC
:103CD0008065AB423CD05C60D8614868D8631A62AA
:103CE000D8690C6940F00800D861D96921F0040155
:103CF000D961DA692243DA6100238CF83C30002074
:103D000070BD02207047CD6822F008022A43D1E935
:103D1000056524F4407446EA050E22F004024EEADA
:103D200004047AE7CD6822F0800242EA0512D1E964
:103D3000056524F4406446EA050E22F0400244EA98
:103D40008E0499E74D6924F4804444EA851436E7EB
:103D5000CD6822F4006242EA0522D1E9056524F427
:103D6000405446EA050E22F4806244EA0E14B2E79B
:103D70000000014090F83C30012B75D0024630B471
:103D80000223046882F83D30012082F83C00A368D9
:103D900023F47F4323F07703A3600B68602B65D087
:103DA00024D8402B7CD04BD9502B17D14868CD68F4
:103DB000216A236A23F001032362A36921F00A0127
:103DC00023F0F003014343EA0513A3612162A368D2
:103DD00023F0700343F057030020A3600121002368
:103DE00082F83D1082F83C3030BC7047B3F5805FFC
:103DF00038D0B3F5005F10D1D1E90153A0682B434F
:103E0000CD6820F47F4143EA05230B43A360A368F8
:103E100043F480430020A360E0E7702BDED1D1E9BA
:103E20000153A0682B43CD6820F47F4143EA05236A
:103E30000B43A360A36843F077030020A360CDE7A2
:103E4000202B02D00AD9302BC8D1A16821F07001F3
:103E50000B4343F007030020A360BFE733F01001DA
:103E6000BCD1F2E70020B9E702207047206ACB6896
:103E70004D6820F010002062A16921F4704141EAF0
:103E80000331236AA16123F0A00343EA05132362EF
:103E9000A36823F0700343F067030020A3609DE74D
:103EA0004868CD68216A236A23F001032362A3696D
:103EB00021F00A0123F0F003014343EA0513A36153
:103EC0002162A36823F0700343F047030020A3603E
:103ED00084E700BF704700BF704700BF704700BF56
:103EE000704700BF704700BF03681A69910710B59B
:103EF000044602D5DA6892075FD41A69500702D5E2
:103F0000DA68510746D41A69120702D5DA68100731
:103F10002ED41A69D20602D5DA68D00618D41A69E6
:103F2000D10702D5DA68D2075DD41A69100602D526
:103F3000DA6811065FD41A69520602D5DA685006AB
:103F400061D41A69910602D5DA68920643D410BD8D
:103F50006FF01001082219612277DB6913F4407FAA
:103F6000204664D0FFF7BAFF002223682277D6E705
:103F70006FF00801042219612277DB699907204656
:103F800052D1FFF7A9FF2046FFF7AAFF00222368BE
:103F90002277BEE76FF004010222196122779B6944
:103FA00013F4407F20463CD1FFF796FF2046FFF7F1
:103FB00097FF002223682277A5E76FF00201012214
:103FC000196102779B699B0725D0FFF787FF0022C5
:103FD0002368227791E76FF0200220461A61BDE83E
:103FE000104000F0A5B86FF001021A612046FFF7FB
:103FF00071FF236899E76FF080021A61204600F094
:1040000099F8236897E76FF040021A612046FFF79E
:1040100069FF236895E7FFF75FFF2046FFF760FF22
:10402000D5E7FFF75BFFC4E7FFF758FFAEE7FFF701
:1040300053FF2046FFF754FF96E700BF036A01F0E5
:104040001F014FF0010C0CFA01FC23EA0C03036280
:10405000036A8A401A430262704700BF90F83C30FE
:10406000012B37D00368022230B480F83D205A6813
:104070000D689C6822F070022A435A60164A9342E7
:104080001AD0B3F1804F17D0A2F57C42934213D0DF
:1040900002F5806293420FD002F5806293420BD00A
:1040A00002F57842934207D002F57052934203D052
:1040B000A2F59432934204D14A6824F08004144358
:1040C0009C600023012280F83D2080F83C3030BC09
:1040D00018467047022070470000014090F83C30BD
:1040E000012B23D010B4D1E9024323F440730246DC
:1040F000234348680C6823F48063034323F400637C
:104100000869234323F4805303434869CC6923F4AB
:104110000053034323F48043106800212343436486
:1041200082F83C1008465DF8044B70470220704747
:10413000704700BF704700BF002800F08F8038B57F
:1041400090F83D30044603F0FF02002B00F0818020
:104150002368E068242284F83D20DA6822F40052C3
:10416000DA601969A26821F440510143206919619C
:1041700002436069D9680243E06921F4164121F0E5
:104180000C0102430A43DA605A69A069344922F4F7
:10419000407202438B425A6135D0324A934232D048
:1041A000FEF7B6FEE369B3F5004F32D0636819211C
:1041B0009A00A0FB01019B0FFCF78CFD2A49A1FB93
:1041C00000325209642505FB1200000132302368D9
:1041D000A1FB0010120102EB501098601A6922F442
:1041E00090421A615A6922F02A025A61DA6800255F
:1041F000202142F40052DA60256484F83D1084F8EE
:104200003E10284638BDFEF793FEE369B3F5004F34
:10421000CCD16268192192184FF000035B41A0FBDA
:104220000101FCF757FD104BA3FB00214D0964224F
:1042300002FB1502D2003232A3FB0232C2F342115A
:104240001209236801EB051102F4F8720A449A601E
:10425000C4E780F83C2005F0FFF979E701207047BA
:1042600000100140001401401F85EB51B0B10268FD
:10427000242310B580F83D30D36823F4005304465E
:10428000D36005F0F5FA0023236484F83C3084F809
:104290003D3084F83E301846236310BD012070473E
:1042A000F8B5044690F83D00202835D191B38AB383
:1042B00094F83C0001282FD00120E28484F83C00CF
:1042C000A284606BDFF85CC0144F154E2162134668
:1042D000226800254FF0210E2564043284F83DE069
:1042E000C0E90FC7C0E91365FDF7D6FA22686FF081
:1042F0004003136084F83C5002F1140353E8003F7C
:1043000043F0800302F1140040E800310029F3D1AA
:104310000020F8BD0120F8BD0220F8BD7D43020851
:10432000914302082D430208704700BF08B5036897
:10433000806B1B6813F480731AD10268C38402F186
:10434000140353E8003F23F0800302F1140040E817
:1043500000310029F3D102F10C0353E8003F43F090
:10436000400302F10C0040E800310029F3D108BD00
:10437000FFF7DAFF08BD00BF704700BF08B5806BCC
:10438000FFF7FAFF08BD00BF704700BF704700BFCE
:1043900008B5806B0368596990F83D20212A0BD03D
:1043A000596990F83E20222A1ED0036C43F0100376
:1043B0000364FFF7EBFF08BD0906F1D50022C284B4
:1043C00003F10C0252E8002F22F0C00203F10C0CA2
:1043D0004CE800210029F3D1202280F83D205969C2
:1043E00090F83E20222AE0D14A06DED50022C2857E
:1043F00003F10C0252E8002F22F4907203F10C0C2E
:104400004CE800210029F3D103F1140252E8002FF7
:1044100022F0010203F1140C4CE800210029F3D131
:10442000026B012A05D02022002380F83E2003637E
:10443000BBE703F10C0252E8002F22F0100203F157
:104440000C0C4CE800210029F3D1ECE708B5806B97
:104450000023C385C384FFF799FF08BD704700BFE1
:104460008368B3F5805F44D0826A002B39D003683B
:104470005B6803F07F031370836A01338362C38D2B
:10448000013B9BB2C385002B32D10268D16821F079
:10449000200100B5D160D16821F48071D1605169EB
:1044A0004FF0200C21F00101516180F83EC0016BFA
:1044B000012983B028D1036302F10C0353E8003FC4
:1044C00023F0100302F10C0C4CE800310029F3D169
:1044D0001368DB0622D4818DFFF7C0FF03B05DF8BF
:1044E00004FB0369002BC2D103685B681370C3E748
:1044F000704703696BB90268836A5268C2F30802A5
:1045000023F8022B8362BAE7FFF73EFF03B05DF8A2
:1045100004FB0368826A5B681370ADE700230193B4
:104520001368019353680193019BD4E730B5036886
:104530001A68D9685D6912F00F0F83B004466ED116
:10454000950602D58D0600F1B180206B01280BD0B5
:10455000100602D50D0600F1B380500602D54A06BA
:1045600000F1CD8003B030BDD506F1D5C806EFD53A
:10457000002201921A6801925A680192019A5A69BE
:10458000550640F11681A06B0268526892B2002A6B
:10459000E8D0A18D9142E5D9E285C269B2F5807F6C
:1045A00036D003F10C0252E8002F22F4807203F19E
:1045B0000C0545E800210029F3D103F1140252E86B
:1045C000002F22F0010203F1140545E80021002923
:1045D000F3D103F1140252E8002F22F0400203F15C
:1045E000140545E800210029F3D1202284F83E205B
:1045F000216303F10C0252E8002F22F0100203F1B4
:104600000C0545E800210029F3D1FDF785F9A18DBE
:10461000E38DC91A204689B2FFF720FFA2E705F013
:10462000010501F4907028438FD0D00705D5C80547
:1046300003D5206C40F001002064500731D54DB106
:10464000206C40F002002064900703D5206C40F0FD
:1046500004002064100707D501F02000284303D090
:10466000206C40F008002064206C00283FF47AAFF2
:10467000900609D5890607D594F83E20222A03D151
:104680002046FFF7EDFE23685A69256C02F04002D0
:1046900005F0080515433DD12046FFF777FE256458
:1046A00060E79007D6D5002DD0D1D3E790F83E3003
:1046B000222B7FF457AF03B0BDE83040FFF7D0BEE8
:1046C00094F83D20212A7FF44DAFA268B2F5805FB7
:1046D00000F0A880226A511C216212785A60E28C94
:1046E000013A92B2E284002A7FF43CAFDA6822F009
:1046F0008002DA60DA6842F04002DA6032E7DA68B3
:10470000202122F04002DA60204684F83D10FFF7B5
:104710000BFE27E703F10C0252E8002F22F49072FF
:1047200003F10C0040E800210029F3D103F1140249
:1047300052E8002F22F0010203F1140040E80021AA
:104740000029F3D1226B012A22D00022202184F8F3
:104750003E1022635A69520627D503F1140252E82B
:10476000002F22F0400203F1140040E8002100294C
:10477000F3D1A06BC8B1314B0365FDF715F90028E3
:104780003FF4F0AEA06B036D03B0BDE830401847B6
:1047900003F10C0252E8002F22F0100203F10C008A
:1047A00040E800210029F3D1CFE72046FFF7EEFDD6
:1047B000D8E6E18DE28D92B289B2002A3FF4D2AE02
:1047C000A28D511A89B200293FF4CCAE03F10C023C
:1047D00052E8002F22F4907203F10C0545E8002006
:1047E0000028F3D103F1140252E8002F22F0010255
:1047F00003F1140545E800200028F3D1202284F8B5
:104800003E20206303F10C0252E8002F22F0100238
:1048100003F10C0545E800200028F3D12046FFF7FE
:104820001DFE9FE62269002A7FF454AF226A32F807
:10483000021BC1F308015960226250E74D4402088F
:10484000002873D010B590F83D30044603F0FF0205
:10485000002B66D02268E069022384F83D30D168DD
:10486000A36921F00C01D1601169034321F47C514B
:10487000206A0B430343D4E90210034343F400636B
:104880001361D068236920F416400B4320F00C001C
:10489000616903430B4343F40043D36053692449E4
:1048A00023F440738A42536138D0224B9A4235D068
:1048B000FEF72EFB6268192192184FF000035B414E
:1048C000A0FB0101FCF706FA1B4AA2FB00314FEAEC
:1048D000511C642303FB1C03DB003233A2FB0323C4
:1048E000C3F342111B09226801EB0C1103F4F873A6
:1048F0000B449360136923F480431361536923F0DD
:104900002A035361D36800214FF0010C43F4005394
:10491000D360216484F83DC0084610BDFEF708FB53
:10492000C8E780F83C2004F04BFF93E70120704774
:1049300000100140001401401F85EB51704700BF7B
:10494000704700BF08B58368B3F5805F1BD0C26AAB
:1049500093B103685B6803F07F031370C36A026856
:104960000133C362438E013B9BB24386438E9BB2AD
:10497000A3B1FF23536008BD0369002BE9D103688D
:104980005B681370EAE70369D3B90268C36A5168C8
:10499000C1F3080123F8021BC362E3E7D36823F0E5
:1049A0002003D360D36823F48073D360536901215B
:1049B00023F00103536180F83D10FFF7C1FF08BDEC
:1049C0000368C26A5B681370C8E700BF704700BF26
:1049D00008B5438D9BB21BB102681368190630D429
:1049E000438E9BB2B3B103681A68920612D58268EF
:1049F000B2F5805F3BD0002A4FD10269002A4CD12A
:104A0000C26A5B681370C36A0133C362438E013BA1
:104A10009BB24386438E9BB203B108BD0368DA683C
:104A200022F02002DA60DA6822F48072DA605A69D1
:104A3000012122F001025A6180F83D10FFF7C6FF04
:104A400008BD8368B3F5805F1CD0436A591C41627E
:104A50001B785360438D013B9BB24385438D9BB2D2
:104A6000002BBDD1D36823F08003D360B8E702697F
:104A7000002AC5D15A68C36AC2F3080223F8022B80
:104A8000C362C3E70369002BDFD1436A33F8021B1B
:104A9000C1F3080151604362DCE75B68C26A03F05E
:104AA0007F031370AFE700BF704700BF03681A6849
:104AB00070B51607DD68596904460CD1910601D519
:104AC000AE0660D4160601D528064FD4510601D58E
:104AD0006A0661D470BD01F0010105F490700843CD
:104AE000F0D0D00705D5EE0503D5206C40F00100CD
:104AF0002064500735D549B1206C960740F002007C
:104B0000206403D5206C40F004002064160707D50C
:104B100005F02000014303D0216C41F0080121641D
:104B2000216C0029D6D090060ED5A9060CD594F894
:104B30003D20222A94F83D2000F08680322A03D1BD
:104B40002046FFF745FF23685A69256C02F04002B2
:104B500005F0080515432ED12046FFF7A5FF256473
:104B600070BD9007D2D50029CCD1CFE794F83D2075
:104B7000122A4BD094F83D30322BABD12046BDE801
:104B80007040FFF725BF90F83D30222B90F83D3064
:104B900035D0322BF2D09DE7DA6822F04002DA609D
:104BA0005A69012122F001025A61204684F83D1021
:104BB000FFF7C4FE70BDDA6822F49072DA605A69B9
:104BC000012122F001025A6184F83D105A6952060F
:104BD00011D55A69A06B22F040025A6158B1244B9A
:104BE0000365FCF7E1FE00283FF474AFA06BBDE85D
:104BF0007040036D18472046FFF756FF70BD222B0B
:104C00007FF468AFBDE87040FFF79CBE94F83D208C
:104C1000122A7FF45FAFA268B2F5805F1CD0626A8F
:104C2000511C616212785A60628D013A92B26285BB
:104C3000002A7FF44FAFDA6822F08002DA60DA6887
:104C400042F04002DA6070BD222A7FF47DAF204638
:104C5000FFF778FE236877E72269002ADFD1626ACE
:104C600032F8021BC1F3080159606262DCE700BF41
:104C7000754C020808B5806B002343864385FFF717
:104C800013FF08BD2DE9F0436B4BDFF8BCE16B4C23
:104C90001F68104480B2AEF800004FF08070A06131
:104CA0007B68674843F00103D0F800C07B60DCF804
:104CB0000040644B856DD3F8008044F00104CCF8CB
:104CC0000040D8F8004044F00104C8F800407C6877
:104CD00044F002047C603C6844F040043C60D3E94A
:104CE0001664202303FA04F433682342FCD0C36D16
:104CF000B460202000FA03F328681842FCD0AB60AF
:104D0000D8F8000020F00100C8F80000DCF800002E
:104D100020F00100CCF80000386820F04000386036
:104D2000786820F00300786044484FF48079C0F838
:104D30001890AEF800104FF080718161796841F0F1
:104D400001017960DCF8001041F00101CCF800109D
:104D5000D8F8001041F00101C8F80010796841F05E
:104D600002017960396841F04001396031680C42D4
:104D7000FCD0B46029680B42FCD0AB60D8F80010BE
:104D800021F00101C8F80010DCF8001021F0010149
:104D9000CCF80010396821F040013960796821F0C1
:104DA0000301796025494FF4807088610020AEF8D6
:104DB00000004FF080708861796841F001017960EE
:104DC000DCF8001041F00101CCF80010D8F8001018
:104DD00041F00101C8F80010796841F002017960E2
:104DE000396841F04001396031680C42FCD0B46050
:104DF00029680B42FCD0AB60D8F800300F4923F093
:104E00000103C8F80030DCF8003023F00103CCF8CF
:104E100000303B6823F040033B607B6823F00303D2
:104E20007B604FF480738B61BEF8080080B2101A6B
:104E300018BF0120BDE8F0833C0E002000080240AE
:104E4000100C0020700C002048020020424B434A06
:104E5000DFF814C1F0B54FF080711C68ACF80000A9
:104E6000916163683E4D43F001032E6863603368CF
:104E700043F0010333603B4B1F68DA6D986D3B686C
:104E800043F001033B60636843F0020363602368FF
:104E9000202101FA02F243F04003A96D2360036868
:104EA0001342FCD0EB6D8260202505FA03F30D68F8
:104EB0001D42FCD08B603D6825F001053D603568E2
:104EC00025F001053560256825F0400525606568F9
:104ED00025F003056560214D4FF4807EC5F818E08C
:104EE0004FF0000EACF800E04FF0807EC5F818E0FF
:104EF000656845F001056560356845F00105356078
:104F00003D6845F001053D60656845F00205656056
:104F1000256845F04005256005681542FCD0826093
:104F20000A681A42FCD08B603B680C4A23F00103EC
:104F30003B60336823F001033360236823F04003B0
:104F40002360636823F0030363604FF4807393610D
:104F5000BCF8080080B2F0BD3C0E00200008024002
:104F6000100C0020700C002048020020114B124849
:104F7000124A1B684FF080714FF0000CA0F800C07F
:104F800091615A680E4942F0010208685A6002684D
:104F90000C4942F00102096802600A6842F001020D
:104FA0000A605A6842F002025A601A6842F04002EF
:104FB0001A6070473C0E00204802002000080240A2
:104FC000100C0020700C0020F0B4184F184ED7E9D8
:104FD00016532022B46D9A402B681342FCD0F36D17
:104FE000AA6020229A4023681342FCD0A2603A684B
:104FF0003468136823F00103136022680D4B22F01C
:1050000001021B6822601A680B4C22F040021A60F1
:105010005A6822F003025A60084B4FF48072A26172
:105020005A8902809B890B80F0BC7047700C00206D
:10503000100C00203C0E0020000802404802002016
:105040001548164A036812681968806821F480219F
:1050500030B44028196002F10C02114911484FF098
:1050600003045C600EBF99609A60D9600E4908BF66
:10507000DA600B688C681968402C4FF0030521F446
:10508000802119605D600CBF9A60986030BC0CBFD5
:10509000D860DA60704700BF100C00203C0E002082
:1050A0005002002048020020700C0020F8B5B44CDB
:1050B000B44E2168B44805F0E7FB40F6270130689C
:1050C00002F062FF2168814200F055810146AF483D
:1050D00005F0DAFBAE4805F05DFC402002F044FF2D
:1050E000AC4FAD4D38681E2102F04EFF29680446D2
:1050F000AA4805F0C9FB2968A14200F03881214681
:10510000A74805F0C1FBA74805F044FCA64802F0FB
:1051100043FF002840F02781A44805F03BFCA44D44
:105120003968A44C7822284604F02EFF29467822BC
:10513000A14804F029FF376895ED037AD7ED047A8A
:10514000D4F810E026686B6FFA68E26377EE877A2E
:105150009FED9A7AA36167EE877A7344F2174FF452
:10516000002C3046C3FB0C02D7E900C3FDEEE77A02
:1051700003F5004317EE901A63672B6D2062C4F8A5
:10518000043108186B6D666042EBE1710CF5004666
:10519000C4F80C31EB6CC4F814E06262C4F810314E
:1051A000C4ED077A266704F097FDFBF705FDDFEDF8
:1051B000847A95ED061AD5ED050A95ED040A814E1F
:1051C00007EE100A67EE277A04F58E70F7EE001AE4
:1051D000C4ED0A7AC4ED377A03F0DAFE95ED091AC8
:1051E000D5ED080A95ED070A04F59E70F7EE001A52
:1051F00003F0CEFED4ED411A95ED0C1AD5ED0B0A55
:1052000095ED0A0A04F5AE7003F0C2FED4ED431A20
:1052100095ED0F1AD5ED0E0A95ED0D0A04F5BE7049
:1052200003F0B6FED4ED411A95ED121AD5ED110A30
:1052300095ED100A04F5CE7003F0AAFE04F5047390
:1052400004F5DE70604A012104F058FE04F508738D
:1052500004F5E4705C4A012104F050FE04F510737B
:1052600004F5F070594A012104F048FE04F5147366
:1052700004F5F670564A012104F040FE04F5187357
:1052800004F5FC70534A012104F038FE04F51C7348
:1052900004F50170504A012104F030FE04F50C734E
:1052A00004F5EA704D4A012104F028FE33464C4AC9
:1052B0004C48012104F022FE4B4B4C4A4C48012142
:1052C00004F01CFE4B48FBF7A3FF05214948FCF7FF
:1052D00033F84848FCF78AF807EE900A464A9FEDF3
:1052E000477A5169464B6D68DFED460AF8EE677AFA
:1052F00041F0010167EE877A04F52970C6ED007A66
:10530000C3ED027AC6ED037AC6ED027AC6ED017AE4
:10531000C3ED037A5161D16841F02001D16002F5FB
:1053200070424FF400119161A2F57442B7EE001A79
:10533000516941F001015161D16841F02001D16012
:10534000B1EE080A00221D705A7100F0DBFE04F570
:105350003270DFED2C0ABDE8F840B7EE001AB1EE6E
:10536000080A00F0CFBE284805F014FBD7E627480E
:1053700005F08AFAD3E6264805F086FAB0E600BFC3
:10538000008000082C00002048CC02086CCC0208E9
:1053900090CC02083000002000400008CCCC02086D
:1053A000F4CC02081CCD020850CE020864CD0208DD
:1053B0008C0600209007002004070020EEA6F1488C
:1053C00094990736D8020020DCCE02082CCF0208C0
:1053D00054CF020840CF0208F0CE0208C8CE02081F
:1053E00018CF0208CC020020BC02002004CF020823
:1053F000B0020020000B002000140140E885853C2D
:105400007C0700200AD7233C3CCD02088CCD020843
:10541000A8CC0208B24AB34913682DE9F04701331A
:1054200013600B7882B01BB10120002310600B7059
:10543000AD4F02F097F9BB6E002B40F04A81AB4DA7
:10544000AB4EAC49DFF8E482AB4C881EFFF7BCFDE5
:10545000D8F80030DFEDA96A9B68D90703D5B37887
:10546000002B00F0DE80226FB4F878309B1A07EE34
:10547000903AB4F87A20636F9B1A07EE103AF8EE70
:10548000E77AB8EEC77A67EEA67A27EE267ADFF8D3
:10549000A092994884ED207AC4ED1F7A00F01CFE9A
:1054A00099F80A30002B40F0668102F0E3F8D4ED61
:1054B000347A9FED936AF4EEC67AF1EE10FA40F377
:1054C0003B81904BD4ED0A5AD3ED006A97ED177AE1
:1054D0008D4B76EEA56A37EE667AD3ED006A27EE3D
:1054E000267AB4EEE77AF1EE10FA98BFF0EE477A3A
:1054F000F4EEC67AF1EE10FAB8BFF0EE467A7E48C6
:10550000C4ED347A00F056FED4ED0A7A97ED167A9F
:10551000F4EEC77AF1EE10FA6FD497ED177AF4EE45
:10552000C77AF1EE10FA68DC784BDFF808921F6951
:1055300099F8003007F01007002B40F0C180002FD1
:105540005FD1734B1F60734B00221A60B37913F065
:10555000600F7BD07278002A78D16F4B6F4F704804
:105560004FF0006CC7F818C002211A6420220160B5
:1055700029609A637379D4F89420AA61002B00F013
:105580008380D4ED267A94ED337A37EEC77AD5ED61
:105590000B5A95ED0C6ADFED636A616B2962FCEED4
:1055A000E55ABCEEC66ACDED005A8DED016A9DF854
:1055B00004309DF8002085ED077A03EB0222E36AB0
:1055C0006B6267EEA67AD4F8D830AB60D4F8D030EE
:1055D000EB60FDEEE77AD4F8E0302B61D4F8DC30F4
:1055E0006B6117EE903A02EB03433279EB63012AC9
:1055F00000F0008102B0BDE8F087102002F0B4FC9A
:1056000092E7434F3A6801320B2A3A609BD908204F
:10561000009302F0A9FC009B3B60012389F8003055
:1056200091E7B4F87A20636F9B1A07EE903A226FE5
:10563000B4F878309B1A07EE103AF8EEE77AB8EE35
:10564000C77A67EEA67A27EE267A20E75A0704D5AE
:105650003278023A012A40F2F58013F0780F18D020
:105660007378B3B9304A2E48032129600160D363AF
:1056700093635363284B20229A637379D4F8942060
:10568000AA61002B7FF47DAF94ED267AF0EE477A85
:105690007DE7D8F800309B68DB0703D5B378002B93
:1056A00000F0C180204BD4F8BC205A63D4F8C0204D
:1056B0009A63D4F8C420DA63174B00229A6359E73F
:1056C000144A136845F2D4518B4276D801331360E3
:1056D0003CE77A68054D002A53D0054EB1E600BF7D
:1056E000580200205C0200208C060020800A002066
:1056F0007C0700200A080020900700200000FA3BE9
:10570000000000000C0000201000002000040240F7
:10571000F4020020F8020020000C004000000240CB
:10572000C00A00200000C842000001402C000020F8
:1057300000030020FC0200204B4B97ED167AD3EDBE
:10574000005AD4ED0A6A494B37EE257A37EE667A6D
:10575000D3ED006A27EE267AB4EEE77AF1EE10FA7E
:10576000A8BFF0EE477AF5EEC07AF1EE10FA88BFE6
:10577000F0EE467AC3E602F093FA002389F80A3085
:1057800093E62A683A4E012A7FF45BAEB27912F0B2
:1057900008047FF456AE374AA2FB03129B1A02EBB1
:1057A000530332690132B2EB531F32617FF649AEC7
:1057B000082002F0D9FB346143E6002F3ED1DFF828
:1057C000D4A0DAF8003001330B2BCAF800307FF692
:1057D000BDAE2949294A2A4B4FF000608861176401
:1057E00008201F602F6002F0C7FBCAF8007089F81C
:1057F0000070ABE6234B24491B68B268FF20087099
:105800001A60D4F8A0205A60D4F890209A60A26A56
:105810001E48DA602024112280F83D4002B0BDE825
:10582000F047FEF73DBD1A4BD4F8C4205A63D4F8B4
:10583000C0209A63D4F8BC20DA633DE7154B002200
:105840001A6083E67378002B7FF423AF0B4A0A4F6C
:105850000B484FF0006CC7F818C0022113642023D6
:1058600001602960936385E60C0000201000002091
:105870007C0700206DC1166C00000240000C004047
:10588000C00A0020080000206C02002050100020F8
:1058900000000140F4020020AB4AAC49136870B527
:1058A000013313600B781BB10120002310600B70D3
:1058B000A74EA84D31682A788B6843F080438B60EF
:1058C000032A2CD8DFE812F004003501E6009B0023
:1058D000A14CD4ED3A7AD4ED426AF5EEC07AF1EEFD
:1058E00010FA40F39181F4EEE67AF1EE10FA8CBFF3
:1058F000B0EE667AB0EE677AD4ED397A84ED347A18
:10590000F5EEC07AF1EE10FA40F3C981F4EEE67AD2
